{
  "_format": "hh3-artifact-1",
  "contractName": "PetActivityChecker",
  "sourceName": "contracts/activity/PetActivityChecker.sol",
  "abi": [
    {
      "inputs": [
        {
          "internalType": "address",
          "name": "repository",
          "type": "address"
        },
        {
          "internalType": "uint256",
          "name": "_livenessRatio",
          "type": "uint256"
        },
        {
          "internalType": "address",
          "name": "_owner",
          "type": "address"
        }
      ],
      "stateMutability": "nonpayable",
      "type": "constructor"
    },
    {
      "inputs": [],
      "name": "NotOwner",
      "type": "error"
    },
    {
      "inputs": [],
      "name": "ZeroAddress",
      "type": "error"
    },
    {
      "inputs": [],
      "name": "ZeroValue",
      "type": "error"
    },
    {
      "anonymous": false,
      "inputs": [
        {
          "indexed": true,
          "internalType": "uint256",
          "name": "oldRatio",
          "type": "uint256"
        },
        {
          "indexed": true,
          "internalType": "uint256",
          "name": "newRatio",
          "type": "uint256"
        }
      ],
      "name": "LivenessRatioUpdated",
      "type": "event"
    },
    {
      "anonymous": false,
      "inputs": [
        {
          "indexed": true,
          "internalType": "address",
          "name": "previousOwner",
          "type": "address"
        },
        {
          "indexed": true,
          "internalType": "address",
          "name": "newOwner",
          "type": "address"
        }
      ],
      "name": "OwnershipTransferred",
      "type": "event"
    },
    {
      "inputs": [],
      "name": "actionRepository",
      "outputs": [
        {
          "internalType": "contract IActionRepository",
          "name": "",
          "type": "address"
        }
      ],
      "stateMutability": "view",
      "type": "function"
    },
    {
      "inputs": [
        {
          "internalType": "uint256",
          "name": "newLivenessRatio",
          "type": "uint256"
        }
      ],
      "name": "changeLivenessRatio",
      "outputs": [],
      "stateMutability": "nonpayable",
      "type": "function"
    },
    {
      "inputs": [
        {
          "internalType": "uint256",
          "name": "periodSeconds",
          "type": "uint256"
        }
      ],
      "name": "computeRequiredActions",
      "outputs": [
        {
          "internalType": "uint256",
          "name": "requiredActions",
          "type": "uint256"
        }
      ],
      "stateMutability": "view",
      "type": "function"
    },
    {
      "inputs": [
        {
          "internalType": "address",
          "name": "agent",
          "type": "address"
        }
      ],
      "name": "getMultisigNonces",
      "outputs": [
        {
          "internalType": "uint256[]",
          "name": "nonces",
          "type": "uint256[]"
        }
      ],
      "stateMutability": "view",
      "type": "function"
    },
    {
      "inputs": [
        {
          "internalType": "uint256[]",
          "name": "curNonces",
          "type": "uint256[]"
        },
        {
          "internalType": "uint256[]",
          "name": "lastNonces",
          "type": "uint256[]"
        },
        {
          "internalType": "uint256",
          "name": "ts",
          "type": "uint256"
        }
      ],
      "name": "isRatioPass",
      "outputs": [
        {
          "internalType": "bool",
          "name": "ratioPass",
          "type": "bool"
        }
      ],
      "stateMutability": "view",
      "type": "function"
    },
    {
      "inputs": [],
      "name": "livenessRatio",
      "outputs": [
        {
          "internalType": "uint256",
          "name": "",
          "type": "uint256"
        }
      ],
      "stateMutability": "view",
      "type": "function"
    },
    {
      "inputs": [],
      "name": "owner",
      "outputs": [
        {
          "internalType": "address",
          "name": "",
          "type": "address"
        }
      ],
      "stateMutability": "view",
      "type": "function"
    },
    {
      "inputs": [
        {
          "internalType": "address",
          "name": "newOwner",
          "type": "address"
        }
      ],
      "name": "transferOwnership",
      "outputs": [],
      "stateMutability": "nonpayable",
      "type": "function"
    }
  ],
  "bytecode": "0x60a060405234801561000f575f5ffd5b50604051611152380380611152833981810160405281019061003191906102a1565b5f73ffffffffffffffffffffffffffffffffffffffff168373ffffffffffffffffffffffffffffffffffffffff1603610096576040517fd92e233d00000000000000000000000000000000000000000000000000000000815260040160405180910390fd5b5f82036100cf576040517f7c946ed700000000000000000000000000000000000000000000000000000000815260040160405180910390fd5b5f73ffffffffffffffffffffffffffffffffffffffff168173ffffffffffffffffffffffffffffffffffffffff1603610134576040517fd92e233d00000000000000000000000000000000000000000000000000000000815260040160405180910390fd5b8273ffffffffffffffffffffffffffffffffffffffff1660808173ffffffffffffffffffffffffffffffffffffffff168152505081600181905550805f5f6101000a81548173ffffffffffffffffffffffffffffffffffffffff021916908373ffffffffffffffffffffffffffffffffffffffff1602179055508073ffffffffffffffffffffffffffffffffffffffff165f73ffffffffffffffffffffffffffffffffffffffff167f8be0079c531659141344cd1fd0a4f28419497f9722a3daafe3b4186f6b6457e060405160405180910390a35050506102f1565b5f5ffd5b5f73ffffffffffffffffffffffffffffffffffffffff82169050919050565b5f61023d82610214565b9050919050565b61024d81610233565b8114610257575f5ffd5b50565b5f8151905061026881610244565b92915050565b5f819050919050565b6102808161026e565b811461028a575f5ffd5b50565b5f8151905061029b81610277565b92915050565b5f5f5f606084860312156102b8576102b7610210565b5b5f6102c58682870161025a565b93505060206102d68682870161028d565b92505060406102e78682870161025a565b9150509250925092565b608051610e3b6103175f395f8181610432015281816104e901526105b60152610e3b5ff3fe608060405234801561000f575f5ffd5b5060043610610086575f3560e01c8063d564c4bf11610059578063d564c4bf14610112578063d7e1c45a14610142578063dce3671514610160578063f2fde38b1461019057610086565b8063184023a51461008a578063592cf3fb146100ba5780638da5cb5b146100d8578063bca216a0146100f6575b5f5ffd5b6100a4600480360381019061009f9190610940565b6101ac565b6040516100b191906109e2565b60405180910390f35b6100c26102bb565b6040516100cf9190610a0a565b60405180910390f35b6100e06102c1565b6040516100ed9190610a62565b60405180910390f35b610110600480360381019061010b9190610a7b565b6102e5565b005b61012c60048036038101906101279190610ad0565b6103e2565b6040516101399190610bb2565b60405180910390f35b61014a6105b4565b6040516101579190610c2d565b60405180910390f35b61017a60048036038101906101759190610a7b565b6105d8565b6040516101879190610a0a565b60405180910390f35b6101aa60048036038101906101a59190610ad0565b610601565b005b5f825184511415806101bf575060028451105b156101cc575f90506102b4565b5f846001815181106101e1576101e0610c46565b5b6020026020010151036101f6575f90506102b4565b5f8203610205575f90506102b4565b62278d008210610217575f90506102b4565b5f845f8151811061022b5761022a610c46565b5b602002602001015190505f845f8151811061024957610248610c46565b5b60200260200101519050808211610264575f925050506102b4565b5f81836102719190610ca0565b90505f85670de0b6b3a7640000836102899190610cd3565b6102939190610d41565b90506001548110156102ab575f9450505050506102b4565b60019450505050505b9392505050565b60015481565b5f5f9054906101000a900473ffffffffffffffffffffffffffffffffffffffff1681565b5f5f9054906101000a900473ffffffffffffffffffffffffffffffffffffffff1673ffffffffffffffffffffffffffffffffffffffff163373ffffffffffffffffffffffffffffffffffffffff161461036a576040517f30cd747100000000000000000000000000000000000000000000000000000000815260040160405180910390fd5b5f81036103a3576040517f7c946ed700000000000000000000000000000000000000000000000000000000815260040160405180910390fd5b5f60015490508160018190555081817fc9722022ea34bd799696697b07c370f9b5776fec07b2962e00e7a6c601ea940360405160405180910390a35050565b6060600267ffffffffffffffff8111156103ff576103fe6107d1565b5b60405190808252806020026020018201604052801561042d5781602001602082028036833780820191505090505b5090507f000000000000000000000000000000000000000000000000000000000000000073ffffffffffffffffffffffffffffffffffffffff1663a75f78bb836040518263ffffffff1660e01b81526004016104899190610a62565b602060405180830381865afa1580156104a4573d5f5f3e3d5ffd5b505050506040513d601f19601f820116820180604052508101906104c89190610d85565b815f815181106104db576104da610c46565b5b6020026020010181815250507f000000000000000000000000000000000000000000000000000000000000000073ffffffffffffffffffffffffffffffffffffffff1663554c4f4b836040518263ffffffff1660e01b81526004016105409190610a62565b602060405180830381865afa15801561055b573d5f5f3e3d5ffd5b505050506040513d601f19601f8201168201806040525081019061057f9190610dda565b610589575f61058c565b60015b60ff16816001815181106105a3576105a2610c46565b5b602002602001018181525050919050565b7f000000000000000000000000000000000000000000000000000000000000000081565b5f670de0b6b3a7640000826001546105f09190610cd3565b6105fa9190610d41565b9050919050565b5f5f9054906101000a900473ffffffffffffffffffffffffffffffffffffffff1673ffffffffffffffffffffffffffffffffffffffff163373ffffffffffffffffffffffffffffffffffffffff1614610686576040517f30cd747100000000000000000000000000000000000000000000000000000000815260040160405180910390fd5b5f73ffffffffffffffffffffffffffffffffffffffff168173ffffffffffffffffffffffffffffffffffffffff16036106eb576040517fd92e233d00000000000000000000000000000000000000000000000000000000815260040160405180910390fd5b5f5f5f9054906101000a900473ffffffffffffffffffffffffffffffffffffffff169050815f5f6101000a81548173ffffffffffffffffffffffffffffffffffffffff021916908373ffffffffffffffffffffffffffffffffffffffff1602179055508173ffffffffffffffffffffffffffffffffffffffff168173ffffffffffffffffffffffffffffffffffffffff167f8be0079c531659141344cd1fd0a4f28419497f9722a3daafe3b4186f6b6457e060405160405180910390a35050565b5f604051905090565b5f5ffd5b5f5ffd5b5f5ffd5b5f601f19601f8301169050919050565b7f4e487b71000000000000000000000000000000000000000000000000000000005f52604160045260245ffd5b610807826107c1565b810181811067ffffffffffffffff82111715610826576108256107d1565b5b80604052505050565b5f6108386107ac565b905061084482826107fe565b919050565b5f67ffffffffffffffff821115610863576108626107d1565b5b602082029050602081019050919050565b5f5ffd5b5f819050919050565b61088a81610878565b8114610894575f5ffd5b50565b5f813590506108a581610881565b92915050565b5f6108bd6108b884610849565b61082f565b905080838252602082019050602084028301858111156108e0576108df610874565b5b835b8181101561090957806108f58882610897565b8452602084019350506020810190506108e2565b5050509392505050565b5f82601f830112610927576109266107bd565b5b81356109378482602086016108ab565b91505092915050565b5f5f5f60608486031215610957576109566107b5565b5b5f84013567ffffffffffffffff811115610974576109736107b9565b5b61098086828701610913565b935050602084013567ffffffffffffffff8111156109a1576109a06107b9565b5b6109ad86828701610913565b92505060406109be86828701610897565b9150509250925092565b5f8115159050919050565b6109dc816109c8565b82525050565b5f6020820190506109f55f8301846109d3565b92915050565b610a0481610878565b82525050565b5f602082019050610a1d5f8301846109fb565b92915050565b5f73ffffffffffffffffffffffffffffffffffffffff82169050919050565b5f610a4c82610a23565b9050919050565b610a5c81610a42565b82525050565b5f602082019050610a755f830184610a53565b92915050565b5f60208284031215610a9057610a8f6107b5565b5b5f610a9d84828501610897565b91505092915050565b610aaf81610a42565b8114610ab9575f5ffd5b50565b5f81359050610aca81610aa6565b92915050565b5f60208284031215610ae557610ae46107b5565b5b5f610af284828501610abc565b91505092915050565b5f81519050919050565b5f82825260208201905092915050565b5f819050602082019050919050565b610b2d81610878565b82525050565b5f610b3e8383610b24565b60208301905092915050565b5f602082019050919050565b5f610b6082610afb565b610b6a8185610b05565b9350610b7583610b15565b805f5b83811015610ba5578151610b8c8882610b33565b9750610b9783610b4a565b925050600181019050610b78565b5085935050505092915050565b5f6020820190508181035f830152610bca8184610b56565b905092915050565b5f819050919050565b5f610bf5610bf0610beb84610a23565b610bd2565b610a23565b9050919050565b5f610c0682610bdb565b9050919050565b5f610c1782610bfc565b9050919050565b610c2781610c0d565b82525050565b5f602082019050610c405f830184610c1e565b92915050565b7f4e487b71000000000000000000000000000000000000000000000000000000005f52603260045260245ffd5b7f4e487b71000000000000000000000000000000000000000000000000000000005f52601160045260245ffd5b5f610caa82610878565b9150610cb583610878565b9250828203905081811115610ccd57610ccc610c73565b5b92915050565b5f610cdd82610878565b9150610ce883610878565b9250828202610cf681610878565b91508282048414831517610d0d57610d0c610c73565b5b5092915050565b7f4e487b71000000000000000000000000000000000000000000000000000000005f52601260045260245ffd5b5f610d4b82610878565b9150610d5683610878565b925082610d6657610d65610d14565b5b828204905092915050565b5f81519050610d7f81610881565b92915050565b5f60208284031215610d9a57610d996107b5565b5b5f610da784828501610d71565b91505092915050565b610db9816109c8565b8114610dc3575f5ffd5b50565b5f81519050610dd481610db0565b92915050565b5f60208284031215610def57610dee6107b5565b5b5f610dfc84828501610dc6565b9150509291505056fea26469706673582212206ab76da6a39a6bf5e00e4e6fa9d8aa7f3d7243219ce35f5bc1600e86340eab7964736f6c634300081c0033",
  "linkReferences": {},
  "deployedLinkReferences": {},
  "immutableReferences": {
    "26": [
      {
        "length": 32,
        "start": 1074
      },
      {
        "length": 32,
        "start": 1257
      },
      {
        "length": 32,
        "start": 1462
      }
    ]
  },
  "inputSourceName": "project/contracts/activity/PetActivityChecker.sol",
  "buildInfoId": "solc-0_8_28-987ad3fba89384dd1f88211a9acac78bf9ce80f8"
}